{
  "_format": "hh-sol-artifact-1",
  "contractName": "VotingSystem",
  "sourceName": "contracts/VotingSystem.sol",
  "abi": [
    {
      "inputs": [
        {
          "internalType": "address",
          "name": "_voterNFT",
          "type": "address"
        }
      ],
      "stateMutability": "nonpayable",
      "type": "constructor"
    },
    {
      "inputs": [
        {
          "internalType": "address",
          "name": "owner",
          "type": "address"
        }
      ],
      "name": "OwnableInvalidOwner",
      "type": "error"
    },
    {
      "inputs": [
        {
          "internalType": "address",
          "name": "account",
          "type": "address"
        }
      ],
      "name": "OwnableUnauthorizedAccount",
      "type": "error"
    },
    {
      "anonymous": false,
      "inputs": [
        {
          "indexed": true,
          "internalType": "address",
          "name": "previousOwner",
          "type": "address"
        },
        {
          "indexed": true,
          "internalType": "address",
          "name": "newOwner",
          "type": "address"
        }
      ],
      "name": "OwnershipTransferred",
      "type": "event"
    },
    {
      "anonymous": false,
      "inputs": [
        {
          "indexed": true,
          "internalType": "address",
          "name": "voter",
          "type": "address"
        },
        {
          "indexed": false,
          "internalType": "bool",
          "name": "vote",
          "type": "bool"
        },
        {
          "indexed": false,
          "internalType": "uint256",
          "name": "timestamp",
          "type": "uint256"
        }
      ],
      "name": "Voted",
      "type": "event"
    },
    {
      "inputs": [
        {
          "internalType": "address",
          "name": "",
          "type": "address"
        }
      ],
      "name": "lastVoted",
      "outputs": [
        {
          "internalType": "uint256",
          "name": "",
          "type": "uint256"
        }
      ],
      "stateMutability": "view",
      "type": "function"
    },
    {
      "inputs": [],
      "name": "leadingVote",
      "outputs": [
        {
          "internalType": "string",
          "name": "",
          "type": "string"
        }
      ],
      "stateMutability": "view",
      "type": "function"
    },
    {
      "inputs": [],
      "name": "noVotes",
      "outputs": [
        {
          "internalType": "uint256",
          "name": "",
          "type": "uint256"
        }
      ],
      "stateMutability": "view",
      "type": "function"
    },
    {
      "inputs": [],
      "name": "owner",
      "outputs": [
        {
          "internalType": "address",
          "name": "",
          "type": "address"
        }
      ],
      "stateMutability": "view",
      "type": "function"
    },
    {
      "inputs": [],
      "name": "renounceOwnership",
      "outputs": [],
      "stateMutability": "nonpayable",
      "type": "function"
    },
    {
      "inputs": [
        {
          "internalType": "address",
          "name": "user",
          "type": "address"
        }
      ],
      "name": "timeUntilNextVote",
      "outputs": [
        {
          "internalType": "uint256",
          "name": "",
          "type": "uint256"
        }
      ],
      "stateMutability": "view",
      "type": "function"
    },
    {
      "inputs": [
        {
          "internalType": "address",
          "name": "newOwner",
          "type": "address"
        }
      ],
      "name": "transferOwnership",
      "outputs": [],
      "stateMutability": "nonpayable",
      "type": "function"
    },
    {
      "inputs": [
        {
          "internalType": "bool",
          "name": "_vote",
          "type": "bool"
        }
      ],
      "name": "vote",
      "outputs": [],
      "stateMutability": "nonpayable",
      "type": "function"
    },
    {
      "inputs": [],
      "name": "voterNFT",
      "outputs": [
        {
          "internalType": "contract IERC721",
          "name": "",
          "type": "address"
        }
      ],
      "stateMutability": "view",
      "type": "function"
    },
    {
      "inputs": [
        {
          "internalType": "uint256",
          "name": "",
          "type": "uint256"
        }
      ],
      "name": "votesPerDay",
      "outputs": [
        {
          "internalType": "uint256",
          "name": "",
          "type": "uint256"
        }
      ],
      "stateMutability": "view",
      "type": "function"
    },
    {
      "inputs": [],
      "name": "yesVotes",
      "outputs": [
        {
          "internalType": "uint256",
          "name": "",
          "type": "uint256"
        }
      ],
      "stateMutability": "view",
      "type": "function"
    }
  ],
  "bytecode": "0x608060405234801561001057600080fd5b5060405161104d38038061104d83398181016040528101906100329190610223565b33600073ffffffffffffffffffffffffffffffffffffffff168173ffffffffffffffffffffffffffffffffffffffff16036100a55760006040517f1e4fbdf700000000000000000000000000000000000000000000000000000000815260040161009c919061025f565b60405180910390fd5b6100b4816100fc60201b60201c565b5080600160006101000a81548173ffffffffffffffffffffffffffffffffffffffff021916908373ffffffffffffffffffffffffffffffffffffffff1602179055505061027a565b60008060009054906101000a900473ffffffffffffffffffffffffffffffffffffffff169050816000806101000a81548173ffffffffffffffffffffffffffffffffffffffff021916908373ffffffffffffffffffffffffffffffffffffffff1602179055508173ffffffffffffffffffffffffffffffffffffffff168173ffffffffffffffffffffffffffffffffffffffff167f8be0079c531659141344cd1fd0a4f28419497f9722a3daafe3b4186f6b6457e060405160405180910390a35050565b600080fd5b600073ffffffffffffffffffffffffffffffffffffffff82169050919050565b60006101f0826101c5565b9050919050565b610200816101e5565b811461020b57600080fd5b50565b60008151905061021d816101f7565b92915050565b600060208284031215610239576102386101c0565b5b60006102478482850161020e565b91505092915050565b610259816101e5565b82525050565b60006020820190506102746000830184610250565b92915050565b610dc4806102896000396000f3fe608060405234801561001057600080fd5b50600436106100a95760003560e01c806390a6a56a1161007157806390a6a56a146101525780639a61df8914610170578063b320e970146101a0578063b5b47f42146101be578063f2fde38b146101dc578063fb286c65146101f8576100a9565b80634b9f5c98146100ae57806361df7540146100ca578063715018a6146100fa57806382f6307b146101045780638da5cb5b14610134575b600080fd5b6100c860048036038101906100c3919061089c565b610216565b005b6100e460048036038101906100df91906108ff565b610456565b6040516100f1919061093b565b60405180910390f35b61010261046e565b005b61011e600480360381019061011991906109b4565b610482565b60405161012b919061093b565b60405180910390f35b61013c610543565b60405161014991906109f0565b60405180910390f35b61015a61056c565b6040516101679190610a9b565b60405180910390f35b61018a600480360381019061018591906109b4565b61063c565b604051610197919061093b565b60405180910390f35b6101a8610654565b6040516101b59190610b1c565b60405180910390f35b6101c661067a565b6040516101d3919061093b565b60405180910390f35b6101f660048036038101906101f191906109b4565b610680565b005b610200610706565b60405161020d919061093b565b60405180910390f35b6000600160009054906101000a900473ffffffffffffffffffffffffffffffffffffffff1673ffffffffffffffffffffffffffffffffffffffff166370a08231336040518263ffffffff1660e01b815260040161027391906109f0565b602060405180830381865afa158015610290573d6000803e3d6000fd5b505050506040513d601f19601f820116820180604052508101906102b49190610b4c565b116102f4576040517f08c379a00000000000000000000000000000000000000000000000000000000081526004016102eb90610bc5565b60405180910390fd5b62015180600260003373ffffffffffffffffffffffffffffffffffffffff1673ffffffffffffffffffffffffffffffffffffffff168152602001908152602001600020546103429190610c14565b4211610383576040517f08c379a000000000000000000000000000000000000000000000000000000000815260040161037a90610cba565b60405180910390fd5b42600260003373ffffffffffffffffffffffffffffffffffffffff1673ffffffffffffffffffffffffffffffffffffffff1681526020019081526020016000208190555080156103ea57600460008154809291906103e090610cda565b9190505550610403565b600560008154809291906103fd90610cda565b91905055505b3373ffffffffffffffffffffffffffffffffffffffff167f591a89b27b3057021df052ec15caa0a817c1894bcb52243ed0c8cdaa83f322be824260405161044b929190610d31565b60405180910390a250565b60036020528060005260406000206000915090505481565b61047661070c565b6104806000610793565b565b600062015180600260008473ffffffffffffffffffffffffffffffffffffffff1673ffffffffffffffffffffffffffffffffffffffff168152602001908152602001600020546104d29190610c14565b4211156104e2576000905061053e565b4262015180600260008573ffffffffffffffffffffffffffffffffffffffff1673ffffffffffffffffffffffffffffffffffffffff168152602001908152602001600020546105319190610c14565b61053b9190610d5a565b90505b919050565b60008060009054906101000a900473ffffffffffffffffffffffffffffffffffffffff16905090565b606060055460045411156105b7576040518060400160405280600381526020017f59455300000000000000000000000000000000000000000000000000000000008152509050610639565b6004546005541115610600576040518060400160405280600281526020017f4e4f0000000000000000000000000000000000000000000000000000000000008152509050610639565b6040518060400160405280600481526020017f544945440000000000000000000000000000000000000000000000000000000081525090505b90565b60026020528060005260406000206000915090505481565b600160009054906101000a900473ffffffffffffffffffffffffffffffffffffffff1681565b60055481565b61068861070c565b600073ffffffffffffffffffffffffffffffffffffffff168173ffffffffffffffffffffffffffffffffffffffff16036106fa5760006040517f1e4fbdf70000000000000000000000000000000000000000000000000000000081526004016106f191906109f0565b60405180910390fd5b61070381610793565b50565b60045481565b610714610857565b73ffffffffffffffffffffffffffffffffffffffff16610732610543565b73ffffffffffffffffffffffffffffffffffffffff161461079157610755610857565b6040517f118cdaa700000000000000000000000000000000000000000000000000000000815260040161078891906109f0565b60405180910390fd5b565b60008060009054906101000a900473ffffffffffffffffffffffffffffffffffffffff169050816000806101000a81548173ffffffffffffffffffffffffffffffffffffffff021916908373ffffffffffffffffffffffffffffffffffffffff1602179055508173ffffffffffffffffffffffffffffffffffffffff168173ffffffffffffffffffffffffffffffffffffffff167f8be0079c531659141344cd1fd0a4f28419497f9722a3daafe3b4186f6b6457e060405160405180910390a35050565b600033905090565b600080fd5b60008115159050919050565b61087981610864565b811461088457600080fd5b50565b60008135905061089681610870565b92915050565b6000602082840312156108b2576108b161085f565b5b60006108c084828501610887565b91505092915050565b6000819050919050565b6108dc816108c9565b81146108e757600080fd5b50565b6000813590506108f9816108d3565b92915050565b6000602082840312156109155761091461085f565b5b6000610923848285016108ea565b91505092915050565b610935816108c9565b82525050565b6000602082019050610950600083018461092c565b92915050565b600073ffffffffffffffffffffffffffffffffffffffff82169050919050565b600061098182610956565b9050919050565b61099181610976565b811461099c57600080fd5b50565b6000813590506109ae81610988565b92915050565b6000602082840312156109ca576109c961085f565b5b60006109d88482850161099f565b91505092915050565b6109ea81610976565b82525050565b6000602082019050610a0560008301846109e1565b92915050565b600081519050919050565b600082825260208201905092915050565b60005b83811015610a45578082015181840152602081019050610a2a565b60008484015250505050565b6000601f19601f8301169050919050565b6000610a6d82610a0b565b610a778185610a16565b9350610a87818560208601610a27565b610a9081610a51565b840191505092915050565b60006020820190508181036000830152610ab58184610a62565b905092915050565b6000819050919050565b6000610ae2610add610ad884610956565b610abd565b610956565b9050919050565b6000610af482610ac7565b9050919050565b6000610b0682610ae9565b9050919050565b610b1681610afb565b82525050565b6000602082019050610b316000830184610b0d565b92915050565b600081519050610b46816108d3565b92915050565b600060208284031215610b6257610b6161085f565b5b6000610b7084828501610b37565b91505092915050565b7f596f75206d757374206f776e206120566f7465724e465420746f20766f746500600082015250565b6000610baf601f83610a16565b9150610bba82610b79565b602082019050919050565b60006020820190508181036000830152610bde81610ba2565b9050919050565b7f4e487b7100000000000000000000000000000000000000000000000000000000600052601160045260246000fd5b6000610c1f826108c9565b9150610c2a836108c9565b9250828201905080821115610c4257610c41610be5565b5b92915050565b7f596f752063616e206f6e6c7920766f7465206f6e63652065766572792032342060008201527f686f757273000000000000000000000000000000000000000000000000000000602082015250565b6000610ca4602583610a16565b9150610caf82610c48565b604082019050919050565b60006020820190508181036000830152610cd381610c97565b9050919050565b6000610ce5826108c9565b91507fffffffffffffffffffffffffffffffffffffffffffffffffffffffffffffffff8203610d1757610d16610be5565b5b600182019050919050565b610d2b81610864565b82525050565b6000604082019050610d466000830185610d22565b610d53602083018461092c565b9392505050565b6000610d65826108c9565b9150610d70836108c9565b9250828203905081811115610d8857610d87610be5565b5b9291505056fea2646970667358221220e25729ccd7daca179fc2251c1cc15ae9bf372e9d8d1f4a5fec4ed268ed040add64736f6c634300081c0033",
  "linkReferences": {},
  "deployedLinkReferences": {}
}