{
  "_format": "hh-sol-artifact-1",
  "contractName": "VoterNFT",
  "sourceName": "contracts/VoterNFT.sol",
  "abi": [
    {
      "inputs": [],
      "stateMutability": "nonpayable",
      "type": "constructor"
    },
    {
      "inputs": [
        {
          "internalType": "address",
          "name": "sender",
          "type": "address"
        },
        {
          "internalType": "uint256",
          "name": "tokenId",
          "type": "uint256"
        },
        {
          "internalType": "address",
          "name": "owner",
          "type": "address"
        }
      ],
      "name": "ERC721IncorrectOwner",
      "type": "error"
    },
    {
      "inputs": [
        {
          "internalType": "address",
          "name": "operator",
          "type": "address"
        },
        {
          "internalType": "uint256",
          "name": "tokenId",
          "type": "uint256"
        }
      ],
      "name": "ERC721InsufficientApproval",
      "type": "error"
    },
    {
      "inputs": [
        {
          "internalType": "address",
          "name": "approver",
          "type": "address"
        }
      ],
      "name": "ERC721InvalidApprover",
      "type": "error"
    },
    {
      "inputs": [
        {
          "internalType": "address",
          "name": "operator",
          "type": "address"
        }
      ],
      "name": "ERC721InvalidOperator",
      "type": "error"
    },
    {
      "inputs": [
        {
          "internalType": "address",
          "name": "owner",
          "type": "address"
        }
      ],
      "name": "ERC721InvalidOwner",
      "type": "error"
    },
    {
      "inputs": [
        {
          "internalType": "address",
          "name": "receiver",
          "type": "address"
        }
      ],
      "name": "ERC721InvalidReceiver",
      "type": "error"
    },
    {
      "inputs": [
        {
          "internalType": "address",
          "name": "sender",
          "type": "address"
        }
      ],
      "name": "ERC721InvalidSender",
      "type": "error"
    },
    {
      "inputs": [
        {
          "internalType": "uint256",
          "name": "tokenId",
          "type": "uint256"
        }
      ],
      "name": "ERC721NonexistentToken",
      "type": "error"
    },
    {
      "inputs": [
        {
          "internalType": "address",
          "name": "owner",
          "type": "address"
        }
      ],
      "name": "OwnableInvalidOwner",
      "type": "error"
    },
    {
      "inputs": [
        {
          "internalType": "address",
          "name": "account",
          "type": "address"
        }
      ],
      "name": "OwnableUnauthorizedAccount",
      "type": "error"
    },
    {
      "anonymous": false,
      "inputs": [
        {
          "indexed": true,
          "internalType": "address",
          "name": "owner",
          "type": "address"
        },
        {
          "indexed": true,
          "internalType": "address",
          "name": "approved",
          "type": "address"
        },
        {
          "indexed": true,
          "internalType": "uint256",
          "name": "tokenId",
          "type": "uint256"
        }
      ],
      "name": "Approval",
      "type": "event"
    },
    {
      "anonymous": false,
      "inputs": [
        {
          "indexed": true,
          "internalType": "address",
          "name": "owner",
          "type": "address"
        },
        {
          "indexed": true,
          "internalType": "address",
          "name": "operator",
          "type": "address"
        },
        {
          "indexed": false,
          "internalType": "bool",
          "name": "approved",
          "type": "bool"
        }
      ],
      "name": "ApprovalForAll",
      "type": "event"
    },
    {
      "anonymous": false,
      "inputs": [
        {
          "indexed": true,
          "internalType": "address",
          "name": "previousOwner",
          "type": "address"
        },
        {
          "indexed": true,
          "internalType": "address",
          "name": "newOwner",
          "type": "address"
        }
      ],
      "name": "OwnershipTransferred",
      "type": "event"
    },
    {
      "anonymous": false,
      "inputs": [
        {
          "indexed": true,
          "internalType": "address",
          "name": "from",
          "type": "address"
        },
        {
          "indexed": true,
          "internalType": "address",
          "name": "to",
          "type": "address"
        },
        {
          "indexed": true,
          "internalType": "uint256",
          "name": "tokenId",
          "type": "uint256"
        }
      ],
      "name": "Transfer",
      "type": "event"
    },
    {
      "anonymous": false,
      "inputs": [
        {
          "indexed": true,
          "internalType": "address",
          "name": "user",
          "type": "address"
        },
        {
          "indexed": false,
          "internalType": "uint256",
          "name": "tokenId",
          "type": "uint256"
        }
      ],
      "name": "VoterNFTMinted",
      "type": "event"
    },
    {
      "inputs": [
        {
          "internalType": "address",
          "name": "to",
          "type": "address"
        },
        {
          "internalType": "uint256",
          "name": "tokenId",
          "type": "uint256"
        }
      ],
      "name": "approve",
      "outputs": [],
      "stateMutability": "nonpayable",
      "type": "function"
    },
    {
      "inputs": [
        {
          "internalType": "address",
          "name": "owner",
          "type": "address"
        }
      ],
      "name": "balanceOf",
      "outputs": [
        {
          "internalType": "uint256",
          "name": "",
          "type": "uint256"
        }
      ],
      "stateMutability": "view",
      "type": "function"
    },
    {
      "inputs": [
        {
          "internalType": "uint256",
          "name": "tokenId",
          "type": "uint256"
        }
      ],
      "name": "getApproved",
      "outputs": [
        {
          "internalType": "address",
          "name": "",
          "type": "address"
        }
      ],
      "stateMutability": "view",
      "type": "function"
    },
    {
      "inputs": [
        {
          "internalType": "address",
          "name": "",
          "type": "address"
        }
      ],
      "name": "hasMinted",
      "outputs": [
        {
          "internalType": "bool",
          "name": "",
          "type": "bool"
        }
      ],
      "stateMutability": "view",
      "type": "function"
    },
    {
      "inputs": [
        {
          "internalType": "address",
          "name": "owner",
          "type": "address"
        },
        {
          "internalType": "address",
          "name": "operator",
          "type": "address"
        }
      ],
      "name": "isApprovedForAll",
      "outputs": [
        {
          "internalType": "bool",
          "name": "",
          "type": "bool"
        }
      ],
      "stateMutability": "view",
      "type": "function"
    },
    {
      "inputs": [],
      "name": "mint",
      "outputs": [],
      "stateMutability": "nonpayable",
      "type": "function"
    },
    {
      "inputs": [],
      "name": "name",
      "outputs": [
        {
          "internalType": "string",
          "name": "",
          "type": "string"
        }
      ],
      "stateMutability": "view",
      "type": "function"
    },
    {
      "inputs": [],
      "name": "owner",
      "outputs": [
        {
          "internalType": "address",
          "name": "",
          "type": "address"
        }
      ],
      "stateMutability": "view",
      "type": "function"
    },
    {
      "inputs": [
        {
          "internalType": "uint256",
          "name": "tokenId",
          "type": "uint256"
        }
      ],
      "name": "ownerOf",
      "outputs": [
        {
          "internalType": "address",
          "name": "",
          "type": "address"
        }
      ],
      "stateMutability": "view",
      "type": "function"
    },
    {
      "inputs": [],
      "name": "renounceOwnership",
      "outputs": [],
      "stateMutability": "nonpayable",
      "type": "function"
    },
    {
      "inputs": [
        {
          "internalType": "address",
          "name": "from",
          "type": "address"
        },
        {
          "internalType": "address",
          "name": "to",
          "type": "address"
        },
        {
          "internalType": "uint256",
          "name": "tokenId",
          "type": "uint256"
        }
      ],
      "name": "safeTransferFrom",
      "outputs": [],
      "stateMutability": "nonpayable",
      "type": "function"
    },
    {
      "inputs": [
        {
          "internalType": "address",
          "name": "from",
          "type": "address"
        },
        {
          "internalType": "address",
          "name": "to",
          "type": "address"
        },
        {
          "internalType": "uint256",
          "name": "tokenId",
          "type": "uint256"
        },
        {
          "internalType": "bytes",
          "name": "data",
          "type": "bytes"
        }
      ],
      "name": "safeTransferFrom",
      "outputs": [],
      "stateMutability": "nonpayable",
      "type": "function"
    },
    {
      "inputs": [
        {
          "internalType": "address",
          "name": "operator",
          "type": "address"
        },
        {
          "internalType": "bool",
          "name": "approved",
          "type": "bool"
        }
      ],
      "name": "setApprovalForAll",
      "outputs": [],
      "stateMutability": "nonpayable",
      "type": "function"
    },
    {
      "inputs": [
        {
          "internalType": "bytes4",
          "name": "interfaceId",
          "type": "bytes4"
        }
      ],
      "name": "supportsInterface",
      "outputs": [
        {
          "internalType": "bool",
          "name": "",
          "type": "bool"
        }
      ],
      "stateMutability": "view",
      "type": "function"
    },
    {
      "inputs": [],
      "name": "symbol",
      "outputs": [
        {
          "internalType": "string",
          "name": "",
          "type": "string"
        }
      ],
      "stateMutability": "view",
      "type": "function"
    },
    {
      "inputs": [],
      "name": "tokenCounter",
      "outputs": [
        {
          "internalType": "uint256",
          "name": "",
          "type": "uint256"
        }
      ],
      "stateMutability": "view",
      "type": "function"
    },
    {
      "inputs": [
        {
          "internalType": "uint256",
          "name": "tokenId",
          "type": "uint256"
        }
      ],
      "name": "tokenURI",
      "outputs": [
        {
          "internalType": "string",
          "name": "",
          "type": "string"
        }
      ],
      "stateMutability": "view",
      "type": "function"
    },
    {
      "inputs": [
        {
          "internalType": "address",
          "name": "from",
          "type": "address"
        },
        {
          "internalType": "address",
          "name": "to",
          "type": "address"
        },
        {
          "internalType": "uint256",
          "name": "tokenId",
          "type": "uint256"
        }
      ],
      "name": "transferFrom",
      "outputs": [],
      "stateMutability": "nonpayable",
      "type": "function"
    },
    {
      "inputs": [
        {
          "internalType": "address",
          "name": "newOwner",
          "type": "address"
        }
      ],
      "name": "transferOwnership",
      "outputs": [],
      "stateMutability": "nonpayable",
      "type": "function"
    }
  ],
  "bytecode": "0x608060405234801561001057600080fd5b50336040518060400160405280600881526020017f566f7465724e46540000000000000000000000000000000000000000000000008152506040518060400160405280600481526020017f564f544500000000000000000000000000000000000000000000000000000000815250816000908161008d9190610445565b50806001908161009d9190610445565b505050600073ffffffffffffffffffffffffffffffffffffffff168173ffffffffffffffffffffffffffffffffffffffff16036101125760006040517f1e4fbdf70000000000000000000000000000000000000000000000000000000081526004016101099190610558565b60405180910390fd5b6101218161012f60201b60201c565b506001600781905550610573565b6000600660009054906101000a900473ffffffffffffffffffffffffffffffffffffffff16905081600660006101000a81548173ffffffffffffffffffffffffffffffffffffffff021916908373ffffffffffffffffffffffffffffffffffffffff1602179055508173ffffffffffffffffffffffffffffffffffffffff168173ffffffffffffffffffffffffffffffffffffffff167f8be0079c531659141344cd1fd0a4f28419497f9722a3daafe3b4186f6b6457e060405160405180910390a35050565b600081519050919050565b7f4e487b7100000000000000000000000000000000000000000000000000000000600052604160045260246000fd5b7f4e487b7100000000000000000000000000000000000000000000000000000000600052602260045260246000fd5b6000600282049050600182168061027657607f821691505b6020821081036102895761028861022f565b5b50919050565b60008190508160005260206000209050919050565b60006020601f8301049050919050565b600082821b905092915050565b6000600883026102f17fffffffffffffffffffffffffffffffffffffffffffffffffffffffffffffffff826102b4565b6102fb86836102b4565b95508019841693508086168417925050509392505050565b6000819050919050565b6000819050919050565b600061034261033d61033884610313565b61031d565b610313565b9050919050565b6000819050919050565b61035c83610327565b61037061036882610349565b8484546102c1565b825550505050565b600090565b610385610378565b610390818484610353565b505050565b5b818110156103b4576103a960008261037d565b600181019050610396565b5050565b601f8211156103f9576103ca8161028f565b6103d3846102a4565b810160208510156103e2578190505b6103f66103ee856102a4565b830182610395565b50505b505050565b600082821c905092915050565b600061041c600019846008026103fe565b1980831691505092915050565b6000610435838361040b565b9150826002028217905092915050565b61044e826101f5565b67ffffffffffffffff81111561046757610466610200565b5b610471825461025e565b61047c8282856103b8565b600060209050601f8311600181146104af576000841561049d578287015190505b6104a78582610429565b86555061050f565b601f1984166104bd8661028f565b60005b828110156104e5578489015182556001820191506020850194506020810190506104c0565b8683101561050257848901516104fe601f89168261040b565b8355505b6001600288020188555050505b505050505050565b600073ffffffffffffffffffffffffffffffffffffffff82169050919050565b600061054282610517565b9050919050565b61055281610537565b82525050565b600060208201905061056d6000830184610549565b92915050565b61231c806105826000396000f3fe608060405234801561001057600080fd5b50600436106101215760003560e01c806370a08231116100ad578063b88d4fde11610071578063b88d4fde146102f4578063c87b56dd14610310578063d082e38114610340578063e985e9c51461035e578063f2fde38b1461038e57610121565b806370a0823114610262578063715018a6146102925780638da5cb5b1461029c57806395d89b41146102ba578063a22cb465146102d857610121565b80631249c58b116100f45780631249c58b146101c057806323b872dd146101ca57806338e21cce146101e657806342842e0e146102165780636352211e1461023257610121565b806301ffc9a71461012657806306fdde0314610156578063081812fc14610174578063095ea7b3146101a4575b600080fd5b610140600480360381019061013b9190611a83565b6103aa565b60405161014d9190611acb565b60405180910390f35b61015e61048c565b60405161016b9190611b76565b60405180910390f35b61018e60048036038101906101899190611bce565b61051e565b60405161019b9190611c3c565b60405180910390f35b6101be60048036038101906101b99190611c83565b61053a565b005b6101c8610550565b005b6101e460048036038101906101df9190611cc3565b6106ab565b005b61020060048036038101906101fb9190611d16565b6107ad565b60405161020d9190611acb565b60405180910390f35b610230600480360381019061022b9190611cc3565b6107cd565b005b61024c60048036038101906102479190611bce565b6107ed565b6040516102599190611c3c565b60405180910390f35b61027c60048036038101906102779190611d16565b6107ff565b6040516102899190611d52565b60405180910390f35b61029a6108b9565b005b6102a46108cd565b6040516102b19190611c3c565b60405180910390f35b6102c26108f7565b6040516102cf9190611b76565b60405180910390f35b6102f260048036038101906102ed9190611d99565b610989565b005b61030e60048036038101906103099190611f0e565b61099f565b005b61032a60048036038101906103259190611bce565b6109c4565b6040516103379190611b76565b60405180910390f35b610348610a2d565b6040516103559190611d52565b60405180910390f35b61037860048036038101906103739190611f91565b610a33565b6040516103859190611acb565b60405180910390f35b6103a860048036038101906103a39190611d16565b610ac7565b005b60007f80ac58cd000000000000000000000000000000000000000000000000000000007bffffffffffffffffffffffffffffffffffffffffffffffffffffffff1916827bffffffffffffffffffffffffffffffffffffffffffffffffffffffff1916148061047557507f5b5e139f000000000000000000000000000000000000000000000000000000007bffffffffffffffffffffffffffffffffffffffffffffffffffffffff1916827bffffffffffffffffffffffffffffffffffffffffffffffffffffffff1916145b80610485575061048482610b4d565b5b9050919050565b60606000805461049b90612000565b80601f01602080910402602001604051908101604052809291908181526020018280546104c790612000565b80156105145780601f106104e957610100808354040283529160200191610514565b820191906000526020600020905b8154815290600101906020018083116104f757829003601f168201915b5050505050905090565b600061052982610bb7565b5061053382610c3f565b9050919050565b61054c8282610547610c7c565b610c84565b5050565b600860003373ffffffffffffffffffffffffffffffffffffffff1673ffffffffffffffffffffffffffffffffffffffff16815260200190815260200160002060009054906101000a900460ff16156105dd576040517f08c379a00000000000000000000000000000000000000000000000000000000081526004016105d49061207d565b60405180910390fd5b6001600860003373ffffffffffffffffffffffffffffffffffffffff1673ffffffffffffffffffffffffffffffffffffffff16815260200190815260200160002060006101000a81548160ff02191690831515021790555061064133600754610c96565b3373ffffffffffffffffffffffffffffffffffffffff167fb7d95516d3eedace84aea7d7f92cae63972d1e5ee7542099bb715dbea66da9ed6007546040516106899190611d52565b60405180910390a2600760008154809291906106a4906120cc565b9190505550565b600073ffffffffffffffffffffffffffffffffffffffff168273ffffffffffffffffffffffffffffffffffffffff160361071d5760006040517f64a0ae920000000000000000000000000000000000000000000000000000000081526004016107149190611c3c565b60405180910390fd5b6000610731838361072c610c7c565b610cb4565b90508373ffffffffffffffffffffffffffffffffffffffff168173ffffffffffffffffffffffffffffffffffffffff16146107a7578382826040517f64283d7b00000000000000000000000000000000000000000000000000000000815260040161079e93929190612114565b60405180910390fd5b50505050565b60086020528060005260406000206000915054906101000a900460ff1681565b6107e88383836040518060200160405280600081525061099f565b505050565b60006107f882610bb7565b9050919050565b60008073ffffffffffffffffffffffffffffffffffffffff168273ffffffffffffffffffffffffffffffffffffffff16036108725760006040517f89c62b640000000000000000000000000000000000000000000000000000000081526004016108699190611c3c565b60405180910390fd5b600360008373ffffffffffffffffffffffffffffffffffffffff1673ffffffffffffffffffffffffffffffffffffffff168152602001908152602001600020549050919050565b6108c1610ece565b6108cb6000610f55565b565b6000600660009054906101000a900473ffffffffffffffffffffffffffffffffffffffff16905090565b60606001805461090690612000565b80601f016020809104026020016040519081016040528092919081815260200182805461093290612000565b801561097f5780601f106109545761010080835404028352916020019161097f565b820191906000526020600020905b81548152906001019060200180831161096257829003601f168201915b5050505050905090565b61099b610994610c7c565b838361101b565b5050565b6109aa8484846106ab565b6109be6109b5610c7c565b8585858561118a565b50505050565b60606109cf82610bb7565b5060006109da61133b565b905060008151116109fa5760405180602001604052806000815250610a25565b80610a0484611352565b604051602001610a15929190612187565b6040516020818303038152906040525b915050919050565b60075481565b6000600560008473ffffffffffffffffffffffffffffffffffffffff1673ffffffffffffffffffffffffffffffffffffffff16815260200190815260200160002060008373ffffffffffffffffffffffffffffffffffffffff1673ffffffffffffffffffffffffffffffffffffffff16815260200190815260200160002060009054906101000a900460ff16905092915050565b610acf610ece565b600073ffffffffffffffffffffffffffffffffffffffff168173ffffffffffffffffffffffffffffffffffffffff1603610b415760006040517f1e4fbdf7000000000000000000000000000000000000000000000000000000008152600401610b389190611c3c565b60405180910390fd5b610b4a81610f55565b50565b60007f01ffc9a7000000000000000000000000000000000000000000000000000000007bffffffffffffffffffffffffffffffffffffffffffffffffffffffff1916827bffffffffffffffffffffffffffffffffffffffffffffffffffffffff1916149050919050565b600080610bc383611420565b9050600073ffffffffffffffffffffffffffffffffffffffff168173ffffffffffffffffffffffffffffffffffffffff1603610c3657826040517f7e273289000000000000000000000000000000000000000000000000000000008152600401610c2d9190611d52565b60405180910390fd5b80915050919050565b60006004600083815260200190815260200160002060009054906101000a900473ffffffffffffffffffffffffffffffffffffffff169050919050565b600033905090565b610c91838383600161145d565b505050565b610cb0828260405180602001604052806000815250611622565b5050565b600080610cc084611420565b9050600073ffffffffffffffffffffffffffffffffffffffff168373ffffffffffffffffffffffffffffffffffffffff1614610d0257610d01818486611646565b5b600073ffffffffffffffffffffffffffffffffffffffff168173ffffffffffffffffffffffffffffffffffffffff1614610d9357610d4460008560008061145d565b6001600360008373ffffffffffffffffffffffffffffffffffffffff1673ffffffffffffffffffffffffffffffffffffffff168152602001908152602001600020600082825403925050819055505b600073ffffffffffffffffffffffffffffffffffffffff168573ffffffffffffffffffffffffffffffffffffffff1614610e16576001600360008773ffffffffffffffffffffffffffffffffffffffff1673ffffffffffffffffffffffffffffffffffffffff168152602001908152602001600020600082825401925050819055505b846002600086815260200190815260200160002060006101000a81548173ffffffffffffffffffffffffffffffffffffffff021916908373ffffffffffffffffffffffffffffffffffffffff160217905550838573ffffffffffffffffffffffffffffffffffffffff168273ffffffffffffffffffffffffffffffffffffffff167fddf252ad1be2c89b69c2b068fc378daa952ba7f163c4a11628f55a4df523b3ef60405160405180910390a4809150509392505050565b610ed6610c7c565b73ffffffffffffffffffffffffffffffffffffffff16610ef46108cd565b73ffffffffffffffffffffffffffffffffffffffff1614610f5357610f17610c7c565b6040517f118cdaa7000000000000000000000000000000000000000000000000000000008152600401610f4a9190611c3c565b60405180910390fd5b565b6000600660009054906101000a900473ffffffffffffffffffffffffffffffffffffffff16905081600660006101000a81548173ffffffffffffffffffffffffffffffffffffffff021916908373ffffffffffffffffffffffffffffffffffffffff1602179055508173ffffffffffffffffffffffffffffffffffffffff168173ffffffffffffffffffffffffffffffffffffffff167f8be0079c531659141344cd1fd0a4f28419497f9722a3daafe3b4186f6b6457e060405160405180910390a35050565b600073ffffffffffffffffffffffffffffffffffffffff168273ffffffffffffffffffffffffffffffffffffffff160361108c57816040517f5b08ba180000000000000000000000000000000000000000000000000000000081526004016110839190611c3c565b60405180910390fd5b80600560008573ffffffffffffffffffffffffffffffffffffffff1673ffffffffffffffffffffffffffffffffffffffff16815260200190815260200160002060008473ffffffffffffffffffffffffffffffffffffffff1673ffffffffffffffffffffffffffffffffffffffff16815260200190815260200160002060006101000a81548160ff0219169083151502179055508173ffffffffffffffffffffffffffffffffffffffff168373ffffffffffffffffffffffffffffffffffffffff167f17307eab39ab6107e8899845ad3d59bd9653f200f220920489ca2b5937696c318360405161117d9190611acb565b60405180910390a3505050565b60008373ffffffffffffffffffffffffffffffffffffffff163b1115611334578273ffffffffffffffffffffffffffffffffffffffff1663150b7a02868685856040518563ffffffff1660e01b81526004016111e99493929190612200565b6020604051808303816000875af192505050801561122557506040513d601f19601f820116820180604052508101906112229190612261565b60015b6112a9573d8060008114611255576040519150601f19603f3d011682016040523d82523d6000602084013e61125a565b606091505b5060008151036112a157836040517f64a0ae920000000000000000000000000000000000000000000000000000000081526004016112989190611c3c565b60405180910390fd5b805181602001fd5b63150b7a0260e01b7bffffffffffffffffffffffffffffffffffffffffffffffffffffffff1916817bffffffffffffffffffffffffffffffffffffffffffffffffffffffff19161461133257836040517f64a0ae920000000000000000000000000000000000000000000000000000000081526004016113299190611c3c565b60405180910390fd5b505b5050505050565b606060405180602001604052806000815250905090565b6060600060016113618461170a565b01905060008167ffffffffffffffff8111156113805761137f611de3565b5b6040519080825280601f01601f1916602001820160405280156113b25781602001600182028036833780820191505090505b509050600082602001820190505b600115611415578080600190039150507f3031323334353637383961626364656600000000000000000000000000000000600a86061a8153600a85816114095761140861228e565b5b049450600085036113c0575b819350505050919050565b60006002600083815260200190815260200160002060009054906101000a900473ffffffffffffffffffffffffffffffffffffffff169050919050565b80806114965750600073ffffffffffffffffffffffffffffffffffffffff168273ffffffffffffffffffffffffffffffffffffffff1614155b156115ca5760006114a684610bb7565b9050600073ffffffffffffffffffffffffffffffffffffffff168373ffffffffffffffffffffffffffffffffffffffff161415801561151157508273ffffffffffffffffffffffffffffffffffffffff168173ffffffffffffffffffffffffffffffffffffffff1614155b801561152457506115228184610a33565b155b1561156657826040517fa9fbf51f00000000000000000000000000000000000000000000000000000000815260040161155d9190611c3c565b60405180910390fd5b81156115c857838573ffffffffffffffffffffffffffffffffffffffff168273ffffffffffffffffffffffffffffffffffffffff167f8c5be1e5ebec7d5bd14f71427d1e84f3dd0314c0f7b2291e5b200ac8c7c3b92560405160405180910390a45b505b836004600085815260200190815260200160002060006101000a81548173ffffffffffffffffffffffffffffffffffffffff021916908373ffffffffffffffffffffffffffffffffffffffff16021790555050505050565b61162c838361185d565b611641611637610c7c565b600085858561118a565b505050565b611651838383611956565b61170557600073ffffffffffffffffffffffffffffffffffffffff168373ffffffffffffffffffffffffffffffffffffffff16036116c657806040517f7e2732890000000000000000000000000000000000000000000000000000000081526004016116bd9190611d52565b60405180910390fd5b81816040517f177e802f0000000000000000000000000000000000000000000000000000000081526004016116fc9291906122bd565b60405180910390fd5b505050565b600080600090507a184f03e93ff9f4daa797ed6e38ed64bf6a1f0100000000000000008310611768577a184f03e93ff9f4daa797ed6e38ed64bf6a1f010000000000000000838161175e5761175d61228e565b5b0492506040810190505b6d04ee2d6d415b85acef810000000083106117a5576d04ee2d6d415b85acef8100000000838161179b5761179a61228e565b5b0492506020810190505b662386f26fc1000083106117d457662386f26fc1000083816117ca576117c961228e565b5b0492506010810190505b6305f5e10083106117fd576305f5e10083816117f3576117f261228e565b5b0492506008810190505b61271083106118225761271083816118185761181761228e565b5b0492506004810190505b60648310611845576064838161183b5761183a61228e565b5b0492506002810190505b600a8310611854576001810190505b80915050919050565b600073ffffffffffffffffffffffffffffffffffffffff168273ffffffffffffffffffffffffffffffffffffffff16036118cf5760006040517f64a0ae920000000000000000000000000000000000000000000000000000000081526004016118c69190611c3c565b60405180910390fd5b60006118dd83836000610cb4565b9050600073ffffffffffffffffffffffffffffffffffffffff168173ffffffffffffffffffffffffffffffffffffffff16146119515760006040517f73c6ac6e0000000000000000000000000000000000000000000000000000000081526004016119489190611c3c565b60405180910390fd5b505050565b60008073ffffffffffffffffffffffffffffffffffffffff168373ffffffffffffffffffffffffffffffffffffffff1614158015611a0e57508273ffffffffffffffffffffffffffffffffffffffff168473ffffffffffffffffffffffffffffffffffffffff1614806119cf57506119ce8484610a33565b5b80611a0d57508273ffffffffffffffffffffffffffffffffffffffff166119f583610c3f565b73ffffffffffffffffffffffffffffffffffffffff16145b5b90509392505050565b6000604051905090565b600080fd5b600080fd5b60007fffffffff0000000000000000000000000000000000000000000000000000000082169050919050565b611a6081611a2b565b8114611a6b57600080fd5b50565b600081359050611a7d81611a57565b92915050565b600060208284031215611a9957611a98611a21565b5b6000611aa784828501611a6e565b91505092915050565b60008115159050919050565b611ac581611ab0565b82525050565b6000602082019050611ae06000830184611abc565b92915050565b600081519050919050565b600082825260208201905092915050565b60005b83811015611b20578082015181840152602081019050611b05565b60008484015250505050565b6000601f19601f8301169050919050565b6000611b4882611ae6565b611b528185611af1565b9350611b62818560208601611b02565b611b6b81611b2c565b840191505092915050565b60006020820190508181036000830152611b908184611b3d565b905092915050565b6000819050919050565b611bab81611b98565b8114611bb657600080fd5b50565b600081359050611bc881611ba2565b92915050565b600060208284031215611be457611be3611a21565b5b6000611bf284828501611bb9565b91505092915050565b600073ffffffffffffffffffffffffffffffffffffffff82169050919050565b6000611c2682611bfb565b9050919050565b611c3681611c1b565b82525050565b6000602082019050611c516000830184611c2d565b92915050565b611c6081611c1b565b8114611c6b57600080fd5b50565b600081359050611c7d81611c57565b92915050565b60008060408385031215611c9a57611c99611a21565b5b6000611ca885828601611c6e565b9250506020611cb985828601611bb9565b9150509250929050565b600080600060608486031215611cdc57611cdb611a21565b5b6000611cea86828701611c6e565b9350506020611cfb86828701611c6e565b9250506040611d0c86828701611bb9565b9150509250925092565b600060208284031215611d2c57611d2b611a21565b5b6000611d3a84828501611c6e565b91505092915050565b611d4c81611b98565b82525050565b6000602082019050611d676000830184611d43565b92915050565b611d7681611ab0565b8114611d8157600080fd5b50565b600081359050611d9381611d6d565b92915050565b60008060408385031215611db057611daf611a21565b5b6000611dbe85828601611c6e565b9250506020611dcf85828601611d84565b9150509250929050565b600080fd5b600080fd5b7f4e487b7100000000000000000000000000000000000000000000000000000000600052604160045260246000fd5b611e1b82611b2c565b810181811067ffffffffffffffff82111715611e3a57611e39611de3565b5b80604052505050565b6000611e4d611a17565b9050611e598282611e12565b919050565b600067ffffffffffffffff821115611e7957611e78611de3565b5b611e8282611b2c565b9050602081019050919050565b82818337600083830152505050565b6000611eb1611eac84611e5e565b611e43565b905082815260208101848484011115611ecd57611ecc611dde565b5b611ed8848285611e8f565b509392505050565b600082601f830112611ef557611ef4611dd9565b5b8135611f05848260208601611e9e565b91505092915050565b60008060008060808587031215611f2857611f27611a21565b5b6000611f3687828801611c6e565b9450506020611f4787828801611c6e565b9350506040611f5887828801611bb9565b925050606085013567ffffffffffffffff811115611f7957611f78611a26565b5b611f8587828801611ee0565b91505092959194509250565b60008060408385031215611fa857611fa7611a21565b5b6000611fb685828601611c6e565b9250506020611fc785828601611c6e565b9150509250929050565b7f4e487b7100000000000000000000000000000000000000000000000000000000600052602260045260246000fd5b6000600282049050600182168061201857607f821691505b60208210810361202b5761202a611fd1565b5b50919050565b7f416c7265616479206d696e746564204e46540000000000000000000000000000600082015250565b6000612067601283611af1565b915061207282612031565b602082019050919050565b600060208201905081810360008301526120968161205a565b9050919050565b7f4e487b7100000000000000000000000000000000000000000000000000000000600052601160045260246000fd5b60006120d782611b98565b91507fffffffffffffffffffffffffffffffffffffffffffffffffffffffffffffffff82036121095761210861209d565b5b600182019050919050565b60006060820190506121296000830186611c2d565b6121366020830185611d43565b6121436040830184611c2d565b949350505050565b600081905092915050565b600061216182611ae6565b61216b818561214b565b935061217b818560208601611b02565b80840191505092915050565b60006121938285612156565b915061219f8284612156565b91508190509392505050565b600081519050919050565b600082825260208201905092915050565b60006121d2826121ab565b6121dc81856121b6565b93506121ec818560208601611b02565b6121f581611b2c565b840191505092915050565b60006080820190506122156000830187611c2d565b6122226020830186611c2d565b61222f6040830185611d43565b818103606083015261224181846121c7565b905095945050505050565b60008151905061225b81611a57565b92915050565b60006020828403121561227757612276611a21565b5b60006122858482850161224c565b91505092915050565b7f4e487b7100000000000000000000000000000000000000000000000000000000600052601260045260246000fd5b60006040820190506122d26000830185611c2d565b6122df6020830184611d43565b939250505056fea26469706673582212208691452779a52b2a03db98668676d1d73ce7a207ed1d2becd485f9b631830fee64736f6c634300081c0033",
  "linkReferences": {},
  "deployedLinkReferences": {}
}